{
  "contractName": "Election",
  "abi": [
    {
      "constant": true,
      "inputs": [
        {
          "name": "",
          "type": "uint256"
        }
      ],
      "name": "proposals",
      "outputs": [
        {
          "name": "id",
          "type": "uint256"
        },
        {
          "name": "name",
          "type": "string"
        },
        {
          "name": "voteCount",
          "type": "uint256"
        }
      ],
      "payable": false,
      "stateMutability": "view",
      "type": "function"
    },
    {
      "constant": true,
      "inputs": [],
      "name": "proposalsCount",
      "outputs": [
        {
          "name": "",
          "type": "uint256"
        }
      ],
      "payable": false,
      "stateMutability": "view",
      "type": "function"
    },
    {
      "constant": true,
      "inputs": [
        {
          "name": "",
          "type": "address"
        }
      ],
      "name": "voters",
      "outputs": [
        {
          "name": "",
          "type": "bool"
        }
      ],
      "payable": false,
      "stateMutability": "view",
      "type": "function"
    },
    {
      "inputs": [],
      "payable": false,
      "stateMutability": "nonpayable",
      "type": "constructor"
    },
    {
      "anonymous": false,
      "inputs": [
        {
          "indexed": true,
          "name": "_proposalId",
          "type": "uint256"
        }
      ],
      "name": "votedEvent",
      "type": "event"
    },
    {
      "constant": true,
      "inputs": [
        {
          "name": "_tokenAddress",
          "type": "address"
        },
        {
          "name": "_addressToQuery",
          "type": "address"
        }
      ],
      "name": "queryERC20Balance",
      "outputs": [
        {
          "name": "",
          "type": "uint256"
        }
      ],
      "payable": false,
      "stateMutability": "view",
      "type": "function"
    },
    {
      "constant": false,
      "inputs": [
        {
          "name": "_proposalId",
          "type": "uint256"
        }
      ],
      "name": "vote",
      "outputs": [],
      "payable": false,
      "stateMutability": "nonpayable",
      "type": "function"
    }
  ],
  "bytecode": "0x608060405234801561001057600080fd5b5061005e6040805190810160405280601f81526020017f3173742036204d6f6e74682050726f706f73616c203a204275726e2056545400815250610233640100000000026401000000009004565b6100d2606060405190810160405280602681526020017f3173742036204d6f6e74682050726f706f73616c203a2053776170205654542081526020017f746f204254430000000000000000000000000000000000000000000000000000815250610233640100000000026401000000009004565b610146606060405190810160405280602681526020017f3173742036204d6f6e74682050726f706f73616c203a2053776170205654542081526020017f746f204554480000000000000000000000000000000000000000000000000000815250610233640100000000026401000000009004565b6101ba606060405190810160405280602681526020017f3173742036204d6f6e74682050726f706f73616c203a2053776170205654542081526020017f746f204547430000000000000000000000000000000000000000000000000000815250610233640100000000026401000000009004565b61022e606060405190810160405280602a81526020017f3173742036204d6f6e74682050726f706f73616c203a2053656e64205654542081526020017f746f205265776172647300000000000000000000000000000000000000000000815250610233640100000000026401000000009004565b610355565b6002600081548092919060010191905055506060604051908101604052806002548152602001828152602001600081525060016000600254815260200190815260200160002060008201518160000155602082015181600101908051906020019061029f9291906102b0565b506040820151816002015590505050565b828054600181600116156101000203166002900490600052602060002090601f016020900481019282601f106102f157805160ff191683800117855561031f565b8280016001018555821561031f579182015b8281111561031e578251825591602001919060010190610303565b5b50905061032c9190610330565b5090565b61035291905b8082111561034e576000816000905550600101610336565b5090565b90565b610584806103646000396000f30060806040526004361061006d576000357c0100000000000000000000000000000000000000000000000000000000900463ffffffff1680630121b93f14610072578063013cf08b1461009f5780630a9f46ad14610153578063a3ec138d1461017e578063ee546a51146101d9575b600080fd5b34801561007e57600080fd5b5061009d60048036038101908080359060200190929190505050610250565b005b3480156100ab57600080fd5b506100ca60048036038101908080359060200190929190505050610390565b6040518084815260200180602001838152602001828103825284818151815260200191508051906020019080838360005b838110156101165780820151818401526020810190506100fb565b50505050905090810190601f1680156101435780820380516001836020036101000a031916815260200191505b5094505050505060405180910390f35b34801561015f57600080fd5b50610168610452565b6040518082815260200191505060405180910390f35b34801561018a57600080fd5b506101bf600480360381019080803573ffffffffffffffffffffffffffffffffffffffff169060200190929190505050610458565b604051808215151515815260200191505060405180910390f35b3480156101e557600080fd5b5061023a600480360381019080803573ffffffffffffffffffffffffffffffffffffffff169060200190929190803573ffffffffffffffffffffffffffffffffffffffff169060200190929190505050610478565b6040518082815260200191505060405180910390f35b6000803373ffffffffffffffffffffffffffffffffffffffff1673ffffffffffffffffffffffffffffffffffffffff16815260200190815260200160002060009054906101000a900460ff161515156102a857600080fd5b6000811180156102ba57506002548111155b15156102c557600080fd5b60016000803373ffffffffffffffffffffffffffffffffffffffff1673ffffffffffffffffffffffffffffffffffffffff16815260200190815260200160002060006101000a81548160ff02191690831515021790555061033a7371ecd162be34bdec113b6d852a88a410502b126d33610478565b6001016001600083815260200190815260200160002060020160008282540192505081905550807ffff3c900d938d21d0990d786e819f29b8d05c1ef587b462b939609625b684b1660405160405180910390a250565b6001602052806000526040600020600091509050806000015490806001018054600181600116156101000203166002900480601f0160208091040260200160405190810160405280929190818152602001828054600181600116156101000203166002900480156104425780601f1061041757610100808354040283529160200191610442565b820191906000526020600020905b81548152906001019060200180831161042557829003601f168201915b5050505050908060020154905083565b60025481565b60006020528060005260406000206000915054906101000a900460ff1681565b60008273ffffffffffffffffffffffffffffffffffffffff166370a08231836040518263ffffffff167c0100000000000000000000000000000000000000000000000000000000028152600401808273ffffffffffffffffffffffffffffffffffffffff1673ffffffffffffffffffffffffffffffffffffffff168152602001915050602060405180830381600087803b15801561051557600080fd5b505af1158015610529573d6000803e3d6000fd5b505050506040513d602081101561053f57600080fd5b81019080805190602001909291905050509050929150505600a165627a7a72305820ba6e892ddba32e3135bd060f3d2217fdc7a5100fa4400e43460db4b68bc5e3610029",
  "source": "pragma solidity 0.4.25;\r\n\r\nimport \"./ERC20Interface.sol\";\r\n\r\ncontract Election {\r\n    // Model a Proposal\r\n    struct Proposal {\r\n        uint id;\r\n        string name;\r\n        uint voteCount;\r\n    }\r\n\r\n    // Store accounts that have voted\r\n    mapping(address => bool) public voters;\r\n    // Store Proposals\r\n    // Fetch Proposal\r\n    mapping(uint => Proposal) public proposals;\r\n    // Store Proposals Count\r\n    uint public proposalsCount;\r\n\r\n\r\n    // voted event\r\n    event votedEvent (\r\n        uint indexed _proposalId\r\n    );\r\n\r\n    function Election () public {\r\n        addProposal(\"1st 6 Month Proposal : Burn VTT\");\r\n        addProposal(\"1st 6 Month Proposal : Swap VTT to BTC\");\r\n        addProposal(\"1st 6 Month Proposal : Swap VTT to ETH\");\r\n        addProposal(\"1st 6 Month Proposal : Swap VTT to EGC\");\r\n        addProposal(\"1st 6 Month Proposal : Send VTT to Rewards\");\r\n\r\n    }\r\n\r\n    function addProposal (string _name) private {\r\n        proposalsCount ++;\r\n        proposals[proposalsCount] = Proposal(proposalsCount, _name, 0);\r\n    }\r\n\r\n    function queryERC20Balance(address _tokenAddress, address _addressToQuery) view public returns (uint) {\r\n        return ERC20Interface(_tokenAddress).balanceOf(_addressToQuery);\r\n    }\r\n\r\n    function vote (uint _proposalId) public {\r\n        // require that they haven't voted before\r\n        require(!voters[msg.sender]);\r\n\r\n        // require a valid proposal\r\n        require(_proposalId > 0 && _proposalId <= proposalsCount);\r\n\r\n        // record that voter has voted\r\n        voters[msg.sender] = true;\r\n\r\n        // update proposal vote Count\r\n\r\n        // update candidate vote Count\r\n        //candidates[_candidateId].voteCount ++;\r\n        //uint index;\r\n\r\n        // proposals[_proposalId].voteCount += 1;\r\n        proposals[_proposalId].voteCount += (1 + queryERC20Balance(0x71eCD162be34bdeC113b6D852a88a410502b126d,msg.sender));\r\n\r\n        // trigger voted event\r\n        votedEvent(_proposalId);\r\n    }\r\n}\r\n",
  "sourcePath": "D:\\Workspace\\election\\contracts\\Election.sol",
  "compiler": {
    "name": "solc",
    "version": "0.4.25+commit.59dbf8f1.Emscripten.clang"
  },
  "schemaVersion": "3.4.3",
  "updatedAt": "2022-01-05T17:17:53.532Z",
  "networkType": "ethereum",
  "devdoc": {
    "methods": {}
  },
  "userdoc": {
    "methods": {}
  }
}